:020000040800F2
:1000000000300020D1140008CD030008CF03000801
:1000100000000000000000000000000000000000E0
:10002000000000000000000000000000D1030008F4
:100030000000000000000000D3030008D503000802
:1000400021150008000000002115000821150008F6
:10005000211500082115000821150008DD030008FE
:1000600000000000211500082115000821150008D6
:1000700021150008211500082115000800000000C6
:1000800021150008000000000000000021150008F4
:1000900000000000211500082115000821150008A6
:1000A00000000000211500080000000021150008D4
:1000B0002115000800000000000000000000000002
:1000C00010B5064C2378002B07D1054B002B02D02E
:1000D000044800E000BF0123237010BD0C00002085
:1000E000000000007C150008044B10B5002B03D065
:1000F0000349044800E000BF10BDC04600000000F6
:10010000100000207C150008002243088B4274D3A5
:1001100003098B425FD3030A8B4244D3030B8B4208
:1001200028D3030C8B420DD3FF22090212BA030C11
:100130008B4202D31212090265D0030B8B4219D3F2
:1001400000E0090AC30B8B4201D3CB03C01A524112
:10015000830B8B4201D38B03C01A5241430B8B425A
:1001600001D34B03C01A5241030B8B4201D30B0343
:10017000C01A5241C30A8B4201D3CB02C01A52416A
:10018000830A8B4201D38B02C01A5241430A8B422D
:1001900001D34B02C01A5241030A8B4201D30B0216
:1001A000C01A5241CDD2C3098B4201D3CB01C01A30
:1001B000524183098B4201D38B01C01A524143093A
:1001C0008B4201D34B01C01A524103098B4201D328
:1001D0000B01C01A5241C3088B4201D3CB00C01A95
:1001E000524183088B4201D38B00C01A524143080D
:1001F0008B4201D34B00C01A5241411A00D2014632
:10020000524110467047FFE701B5002000F006F8A4
:1002100002BDC0460029F7D076E770477047C04658
:10022000F0B58BB01422002105A801F09FF9234BF3
:10023000596B042211435963596B0A400192019A88
:100240005A6B20252A435A635A6B2A400292029A1B
:100250005A6B012422435A635A6B22400392039A39
:10026000596B0222114359635B6B1A400492049B41
:10027000A026F60501222021300000F0C9FD8023D0
:100280009B0105930E4B06930027079705A90D4880
:1002900000F0E0FC0595069407970323089305A951
:1002A000300000F0D7FC00220021072000F072F996
:1002B000072000F09FF90BB0F0BDC04600100240CF
:1002C000000011100008005072B6FEE710B5124889
:1002D000124B0360124B4360002383600122C26013
:1002E000036143618361C361036200F0B1FD0028D3
:1002F0000CD10021084800F019FE002808D1002187
:10030000054800F03FFE002804D110BDFFF7DCFFD8
:10031000FFF7DAFFFFF7D8FF280000200054004065
:100320005D3E302010B50C480C4B0360E1235B02AE
:10033000436000238360C36003610C2242618361D8
:10034000C36103624362836201F082F8002800D136
:1003500010BDFFF7B9FFC0467C00002000440040FC
:1003600000B58DB01C22002105A801F0FFF8142271
:100370000021684601F0FAF802230593FE33089342
:10038000C03B0A9305A800F05DF900280ED10723B1
:100390000093002301930293039304930121684681
:1003A00000F0DCFA002803D10DB000BDFFF78CFF90
:1003B000FFF78AFF10B500F0CFF8FFF7D1FFFFF786
:1003C0002FFFFFF783FFFFF7ADFFFEE7FEE7FEE736
:1003D0007047704710B500F0CBF810BD10B5802005
:1003E000800100F01DFD10BD82B00A4B196C012286
:1003F00011431964196C0A400092009ADA6B80214B
:1004000049050A43DA63DB6B0B400193019B02B0A1
:100410007047C0460010024010B58EB00400142290
:10042000002109A801F0A2F81C22002102A801F075
:100430009DF82268174B9A4201D00EB010BD4023A0
:10044000029302A800F06CFB002820D1124C626BD2
:1004500002231A436263626B13400093009BC02324
:100460009B00099312230A9300230B930C930633EA
:100470000D9309A9094800F0EDFBE26B8021890387
:100480000A43E263E36B0B400193019BD5E7FFF75F
:100490001BFFDBE700540040001002400004005046
:1004A00010B588B004001422002103A801F05EF802
:1004B0002268114B9A4201D008B010BD0F4BD96B86
:1004C000802080020143D963DA6B02400192019AD5
:1004D000596B0122114359635B6B13400293029BDA
:1004E0000C2303930A3B04930792A02003A9C005A1
:1004F00000F0B0FBE0E7C0460044004000100240BE
:1005000010B50400114B1978002901D1012010BD4C
:10051000FA208000FFF7F8FD01000D4B1868FFF787
:10052000F3FD00F073F800280DD1032C01D9012050
:10053000EDE7013000222100404200F02BF8054B8E
:100540001C600020E3E70120E1E7C0460000002036
:10055000080000200400002010B50320FFF7D0FFA2
:10056000041E02D00124200010BDFFF73DFFFAE772
:10057000034B1B78034A11685B1813607047C04631
:100580000000002010010020014B18687047C04691
:100590001001002070B5002811DB8308134EC03312
:1005A0009B009D5903242040C000FF22140084407A
:1005B000A54389010A4082402A439A5170BD0F2306
:1005C0000340083B9B0806339B00094A944663445A
:1005D0005C6803221040C000FC3215008540AC432B
:1005E00089010A40824022435A60E7E700E100E0C7
:1005F00000ED00E0002805DB1F2318401E3B834070
:10060000014A13607047C04600E100E001388023D2
:100610005B0498420FD2094A50600948036A1B02E2
:100620001B0AC02109060B430362002393600733B2
:100630001360002070470120FCE7C04610E000E096
:1006400000ED00E070B5041E00D139E10368DB075E
:100650002CD5A14B9A6838231340082B22D043682D
:100660008022520293422ED0A022D202934231D055
:10067000994B1A6899490A401A601A6898490A40C1
:100680001A606368002B31D0FFF77EFF0500924BA4
:100690001B689B030AD4FFF777FF401B6428F6D939
:1006A00003200EE14368002B00D10BE123689B0778
:1006B00047D5894B9B6838221A4261D1E368002BE9
:1006C00022D10120FDE0844A116880235B020B43A4
:1006D0001360D6E7804B19688022D2020A431A6061
:1006E0001968802252020A431A60CAE7FFF74CFFDA
:1006F0000500794B1B689B03D8D5FFF745FF401BCE
:100700006428F6D90320DCE0734B5A6875490A4027
:10071000616909020A435A601A6873490A402169EB
:100720000A431A601B68DB0A07221A406F4BD3404A
:100730006F4A13606F4B1868FFF7E2FE002800D085
:10074000C2E023681B0757D5634B9A6838231340D0
:10075000182B4ED0A369002B77D05F4A136E01216E
:100760000B431366FFF710FF05005B4B1B6E9B07E7
:1007700042D4FFF709FF401B0228F6D90320A0E06E
:10078000E368002B22D0544A136857490B40216973
:100790000B431360116880235B000B431360FFF76A
:1007A000F3FE05004C4B1B685B0506D4FFF7ECFE1F
:1007B000401B0228F6D9032083E047494B68494A89
:1007C00013406269120213434B60BAE7424A13684E
:1007D00049490B401360FFF7D7FE05003E4B1B68ED
:1007E0005B05AED5FFF7D0FE401B0228F6D90320EB
:1007F00067E0A369002B69D023685B0768D5364B97
:100800009A6838231340202B32D0A368012B34D0B0
:10081000052B38D0304BDA6D01218A43DA65DA6D69
:1008200003318A43DA65A368002B38D0FFF7ACFEAA
:100830000400294BDB6D9B072FD4FFF7A5FE001B9F
:100840002E4B9842F5D903203BE0234A136E012139
:100850008B431366FFF798FE05001F4B1B6E9B072B
:10086000CAD5FFF791FE401B0228F6D9032028E0E5
:10087000A368002B2ED0002023E0174AD36D01215E
:100880000B43D365CFE7144BDA6D04210A43DA65D5
:10089000DA6D03390A43DA65C5E7002011E0FFF796
:1008A00073FE04000C4BDB6D9B0707D5FFF76CFE56
:1008B000001B124B9842F5D9032002E0002000E013
:1008C000012070BD0120FCE70120FAE70120F8E7D4
:1008D0000020F6E70120F4E700100240FFFFFEFFD2
:1008E000FFFFFBFFFF80FFFFFFC7FFFF006CDC0285
:1008F0000800002004000020FFFEFFFF8813000016
:10090000144B9B6838221A4207D1124B1A68D20A3C
:10091000072313401048D84070470E4B9A6838237D
:100920001340082B10D00B4B9A6838231340202B10
:100930000CD0084B9A6838231340182B01D00020A4
:10094000EAE7FA20C001E7E70348E5E78020000274
:10095000E2E7C04600100240006CDC0270B5040003
:100960000D00002800D1AAE0574B1A680723134056
:100970008B4228D323689A0710D55B0707D55349C4
:100980008B68534A1A40B0231B0113438B604F4AB4
:10099000936850490B40E1680B4393602368DB0781
:1009A00052D54A4A13681C218B43A1680B4313603C
:1009B0006368012B1ED0002B38D1444A12685205BF
:1009C0001BD4012063E0404A136807218B432B436B
:1009D0001360FFF7D9FD06003B4B1A68072313404D
:1009E000AB42C7D0FFF7D0FD801B3B4A9042F3D902
:1009F00003204CE01268920363D534498A680720CB
:100A0000824313438B60FFF7BFFD06002F4B9B68AB
:100A100038221A406368DB009A4215D0FFF7B4FD14
:100A2000801B2D4B9842F1D9032030E0032B05D0D9
:100A3000264AD26D9207E0D4012028E0234A126EA4
:100A40009207DAD4012022E01F4B1A6807231340D3
:100A5000AB421DD823685B0706D51C4A93681F4923
:100A60000B4021690B439360FFF74AFF174B9A68CD
:100A7000120A0F2313409B00194A9A581F23134050
:100A8000D840184B1860184B1868FFF739FD70BD37
:100A90000D4A136807218B432B431360FFF774FD46
:100AA0000600094B1A6807231340AB42D2D0FFF768
:100AB0006BFD801B084B9842F3D90320E7E7012028
:100AC000E5E70120E3E7C0460020024000100240B5
:100AD000FF84FFFFFFF0FFFF88130000FF8FFFFF81
:100AE000AC1500080800002004000020014B186825
:100AF0007047C0460800002010B5FFF7F7FF064B0F
:100B00009A68120B072313409B00044A9A581F232C
:100B10001340D84010BDC04600100240EC1500083C
:100B200070B582B0040003689B034ED5424BDB6B6B
:100B3000DB0035D4404AD16B802040050143D163AE
:100B4000D36B03400193019B01253B4BD96DC02220
:100B500092000B001340114210D0A2699A420DD0AE
:100B6000354AD36D35490B40D06D80214902014390
:100B7000D165D16D32480140D165D365DB0711D411
:100B80002D4AD36D2D490B40A1690B43D36500203D
:100B9000012D1BD1284AD36B2A490B40D36315E0A2
:100BA0000025D2E7FFF7F0FC0600234BDB6D9B0727
:100BB00007D4FFF7E9FC801B234B9842F5D90320AB
:100BC00000E000200028E3D1DAE700202368DB07FB
:100BD00006D5194A536D03218B43A1680B43536516
:100BE00023685B0606D5144A536D18490B40E1682B
:100BF0000B43536523685B0406D50F4A536D9B0076
:100C00009B0861690B43536523681B0506D50A4A97
:100C1000536D0F490B4021690B4353652368002B2B
:100C200001DB02B070BD044A1368E0218B436168A8
:100C30000B431360F5E7C04600100240FFFCFFFFC6
:100C4000FFFFFEFFFFFFFFEF88130000FFCFFFFF56
:100C5000FF3FFFFFF0B5D6464F464646C0B50023DE
:100C60003BE0052500E00025A5402C003C43634DFA
:100C70001832920054518022AC584A46D243250083
:100C80004E46B5434E68F60302D54D462C4325002B
:100C90005A4C8027E55184256459250015404E683B
:100CA000B60302D54D462C432500544C8427E5510C
:100CB0002468250015404E68F60202D54D462C43A7
:100CC00025004E4C2560646822404D68AD0201D578
:100CD0004A462243494C626001330C682200DA40E4
:100CE00000D186E001229A4026001640B146144207
:100CF000F2D04C68022C01D0122C18D1DD08083536
:100D0000AD002C58A44607271F40BF000F24A24661
:100D10002600BE40B04666464446A643B4460C692B
:100D2000564626403400BC40664634432C50046886
:100D3000A4465D000324A2462700AF40B846FF4307
:100D400066464446A643B4464C68564626403400A0
:100D5000AC406646344304604C68661E012E03D9DD
:100D6000112C01D0122C12D184683C40A446CC68CE
:100D7000AC40664634438460446894434A68120930
:100D800094460122664632409A40224342604A68B5
:100D9000032A05D0C2683A408F68AF401743C76046
:100DA0004A68D20098D59A0814001834A400134D4C
:100DB000675903251D40EC000F25A540AF43A02532
:100DC000ED05A84200D14EE70D4DA8420BD00D4DC8
:100DD000A8420AD00C4DA84209D00C4DA84200D11F
:100DE0003FE7062540E701253EE702253CE70325CE
:100DF0003AE7E0BCBA46B146A846F0BD001802404A
:100E00000004005000080050000C00500014005076
:100E1000002A01D0816170478162FCE7704770470A
:100E200010B50400094BDB68184204D1074B1B695D
:100E3000234205D110BD054BD860FFF7EFFFF5E762
:100E4000024B1C612000FFF7EAFFF3E700180240A5
:100E500010B5041E60D04123C35C002B48D0412351
:100E60002422E2542268136801218B431360226814
:100E70002A4B61680B4013612268936828490B4034
:100E80009360E368012B39D0226884231B02A16898
:100E90000B439360E368022B37D0226853682149E3
:100EA0000B405360226851681F4B0B43536022680C
:100EB000D3681B490B40D360236962691343A2695D
:100EC000120221681343CB602268E369216A0B4355
:100ED00013602268136801210B43136000236364CD
:100EE00041221F31A15423630132A354002010BDBD
:100EF00040330022C254FFF78FFAB0E72268802304
:100F00001B02A1680B439360C4E7226851688023E9
:100F10001B010B435360C5E70120E8E7FFFFFFF02B
:100F2000FF7FFFFFFFF7FFFF00800002F0B54123C6
:100F3000C35C202B20D12033C35C012B1ED0402466
:100F40000122025541252423435506683368934303
:100F50003360066833680A4F3B4033600668336885
:100F60001943316001680B6813430B60202343551C
:100F7000002303550020F0BD0220FCE70220FAE721
:100F8000FFEFFFFFF0B54123C35C202B1ED12033C0
:100F9000C35C012B1CD0402401220255412524238F
:100FA0004355066833689343336006683368094FD6
:100FB0003B4009021943316001680B6813430B6021
:100FC00020234355002303550020F0BD0220FCE7F9
:100FD0000220FAE7FFF0FFFF30B5EFF310840122A3
:100FE00082F3108801680B68124D2B400B6084F36C
:100FF0001088EFF3108182F31088026893680E4C1A
:101000002340936081F31088C36E012B06D08C239C
:101010002022C2500023C366436730BDEFF3108126
:1010200083F31088026813681024A343136081F3CC
:101030001088ECE7DFFEFFFFFEFFFFEF10B50400B6
:1010400083680269134342691343C2691343016809
:101050000A686348024013430B6022685368614981
:101060000B40E1680B435360226AA3691A4321686D
:101070008B685D48034013438B602268D36A0F215D
:101080008B43616A0B43D3622368584A93421BD057
:10109000574A934229D01023E069802212029042DD
:1010A0002DD0042B00D194E068D8002B00D18AE029
:1010B000022B61D14F4B1B685B090721194001319D
:1010C0004D48FFF721F880E04A4B5A6D0323134047
:1010D000022B0CD005D8002B0BD0012B0BD10333E6
:1010E000DAE7032B09D10533D6E70023D4E702233F
:1010F000D2E70023D0E71023CEE71023CCE7042B60
:1011000037D00FD8002B2ED0022B09D1394B1B68BA
:101110005B090721194001313748FEF7F5FF24E04C
:10112000012047E0082B1CD1636A5B00334A995ABF
:10113000FEF7EAFF400063685B08C0186168FEF7CD
:10114000E3FF0200103A2E4B9A4245D882B20F2399
:101150009A434008083B184010432368D860002099
:1011600028E0012026E0FFF7C7FC0028DCD10020A2
:1011700020E0FFF7C5FBF8E701201BE0082B18D1A2
:1011800080200002636A5B001C4A995AFEF7BCFF8C
:1011900063685B08C0186168FEF7B6FF0200103A8A
:1011A000174B9A421AD823680004000CD86000201C
:1011B00000E0012001236A22A352023AA352002335
:1011C0006367A36710BDFFF797FC0028DAD1002002
:1011D000F0E7FFF795FBF8E70120EBE70120E9E7EF
:1011E000F369FFCFFFCFFFFFFFF4FF11003801408D
:1011F0000044004000100240006CDC02941500081E
:10120000EFFF0000836A1B0706D5026853682C496C
:101210000B40816B0B435360836ADB0706D5026882
:10122000536828490B40C16A0B435360836A9B078C
:1012300006D50268536824490B40016B0B43536089
:10124000836A5B0706D50268536820490B40416BEF
:101250000B435360836ADB0606D5026893681C491A
:101260000B40C16B0B439360836A9B0606D50268F3
:10127000936818490B40016C0B439360836A5B06CB
:101280000BD50268536814490B40416C0B43536003
:1012900080235B03426C9A420AD0836A1B0606D500
:1012A000026853680D490B40C16C0B435360704793
:1012B000026853680A490B40816C0B435360ECE7AA
:1012C000FF7FFFFFFFFFFDFFFFFFFEFFFFFFFBFFB5
:1012D000FFEFFFFFFFDFFFFFFFFFEFFFFFFFF7FF66
:1012E000FFFF9FFFF8B5CE46474680B506000D00CC
:1012F00017009946089B98463368DC692C40641BAC
:1013000063425C41BC422FD143460133F4D0FFF726
:101310003BF94B46C01A40452BD84346002B2AD0F8
:1013200033681A685207E7D5DA69120710D4DA6908
:101330001205E1D5802212011A623000FFF74CFE3F
:1013400090232022F2500C3B0022F25403200CE0A8
:1013500008241C623000FFF73FFE9023F4500C3B42
:101360000022F254012000E00020C0BCB946B04683
:10137000F8BD0320F9E70320F7E7000030B583B09C
:10138000040090230022C250FFF7FEF805002268F7
:101390001268130710D423681B685B072BD4202323
:1013A0008822A3500432A3500023E3662367083A3F
:1013B000A354002003B030BD8021234B00930300D1
:1013C000002289032000FFF78DFF0028E3D0EFF310
:1013D0001081012383F310882268136880208343DF
:1013E000136081F3108888232022E250043B0022FE
:1013F000E2547D38DEE78021134B00932B0000225E
:10140000C9032000FFF76EFF0028C8D0EFF310805B
:10141000012282F3108821680B680C4D2B400B6071
:1014200080F31088EFF3108082F3108821688B68B6
:1014300093438B6080F310888C231F32E250083B6B
:101440000022E2540320B5E7FFFFFF01DFFEFFFFAC
:1014500010B5041E30D08823C358002B22D0882317
:101460002422E2502268136801218B431360A36A8F
:10147000002B1DD12000FFF7E1FD012811D02268CB
:1014800053680E490B405360226893682A218B43AE
:1014900093602268136829390B4313602000FFF71B
:1014A0006DFF10BD84330022C254FEF7F9FFD6E76A
:1014B0002000FFF7A7FEDDE70120F2E7FFB7FFFFFF
:1014C000024B802212059A607047C04600ED00E092
:1014D0000D488546FFF7F4FF002103E00B4B5B58F6
:1014E000435004310A480B4B42189A42F6D30A4A39
:1014F00002E0002313600432084B9A42F9D300F053
:1015000011F8FEF757FFFEE7003000201416000820
:10151000000000200C0000200C000020140100201E
:10152000FEE7000070B500260C4D0D4C641BA410A6
:10153000A64209D1002600F021F80A4D0A4C641B8E
:10154000A410A64205D170BDB300EB5898470136F0
:10155000EEE7B300EB5898470136F2E70C160008A7
:101560000C1600080C16000810160008030082185C
:10157000934200D1704719700133F9E7F8B5C046BE
:10158000F8BC08BC9E467047F8B5C046F8BC08BC1D
:041590009E467047BC
:10159400010002000400060008000A000C0010000C
:1015A4002000400080000001000000000000000056
:1015B4000000000000000000000000000000000027
:1015C4000000000000000000010000000200000014
:1015D40003000000040000000600000007000000F3
:1015E40008000000090000000000000000000000E6
:1015F40000000000000000000100000002000000E4
:081604000300000004000000D7
:04160C00E9000008E9
:04161000C10000080D
:0C1614000100000004000000006CDC027B
:04000005080014D10A
:00000001FF
